:100000000C944B000C9468000C9468000C946800ED
:100010000C9468000C9468000C9468000C946800C0
:100020000C9468000C9468000C9468000C946800B0
:100030000C9468000C942A020C9468000C946800DC
:100040000C9468000C9468000C9468000C94680090
:100050000C9468000C9468000C9468000C94680080
:100060000C9468000C946800084AD73B3BCE016EA4
:1000700084BCBFFDC12F3D6C74319ABD56833DDAFF
:100080003D00C77F11BED9E4BB4C3E916BAAAABE0E
:10009000000000803F0011241FBECFEFD8E0DEBF7C
:1000A000CDBF12E0A0E0B1E0ECEBFDE102C00590B5
:1000B0000D92AC30B107D9F712E0ACE0B2E001C06C
:1000C0001D92A031B107E1F70E9462020C94DC0E90
:1000D0000C9400001092B90088E48093B800089551
:1000E000982F84EA8093BC008091BC0087FFFCCFEE
:1000F0008091B900887F883021F0803111F081E053
:1001000008959093BB0084E88093BC008091BC006C
:1001100087FFFCCF9091B900987F983111F480E06F
:10012000089580E0903409F081E00895982F44EA22
:1001300034E824E94093BC008091BC0087FFFCCFE9
:100140008091B900887F883011F0803199F79093C1
:10015000BB003093BC008091BC0087FFFCCF809136
:10016000B900887F803211F0883539F42093BC00C3
:100170008091BC0084FDFCCFDDCF08950E9470000B
:10018000089584E98093BC008091BC0084FDFCCF7D
:1001900008958093BB0084E88093BC008091BC00EC
:1001A00087FFFCCF8091B90090E0887F883209F00A
:1001B00091E0892F089584EC8093BC008091BC006D
:1001C00087FFFCCF8091BB00089584E88093BC003A
:1001D0008091BC0087FFFCCF8091BB0008950F93F6
:1001E0001F93CF93DF93082F162FEA010E949600EA
:1001F0001093BB0084E88093BC008091BC0087FF13
:10020000FCCF8091B900802F8F5F0E94700084E83E
:100210008093BC008091BC0087FFFCCF8091BB0025
:10022000888384E98093BC008091BC0084FDFCCF6E
:10023000DF91CF911F910F9108950F931F93162F68
:10024000042F0E9496001093BB0084E88093BC00AA
:100250008091BC0087FFFCCF8091B9000093BB0068
:1002600084E88093BC008091BC0087FFFCCF809124
:10027000B90084E98093BC008091BC0084FDFCCF70
:100280001F910F910895FF920F931F93CF93DF93C8
:10029000082F162FF42EE9010E9496001093BB0040
:1002A00084E88093BC008091BC0087FFFCCF8091E4
:1002B000B900802F8F5F0E94700020E04F2D50E02A
:1002C0004150504034EC0DC03093BC008091BC00D4
:1002D00087FFFCCF8091BB00FE01E20FF11D808300
:1002E0002F5F822F90E08417950774F384E8809342
:1002F000BC008091BC0087FFFCCF8091BB00C20F87
:10030000D11D888384E98093BC008091BC0084FD6A
:10031000FCCFDF91CF911F910F91FF900895EF9245
:10032000FF920F931F93162FE42E022FF32E0E949D
:1003300096001093BB0084E88093BC008091BC00C1
:1003400087FFFCCF8091B900802F9F2D9C01F90180
:1003500090E024E80DC080818093BB002093BC0016
:100360008091BC0087FFFCCF8091B9009F5F3196E0
:100370009E1588F384E98093BC008091BC0084FDC5
:10038000FCCF1F910F91FF90EF9008951092800085
:10039000EFE6F0E0808181608083E1E8F0E0808139
:1003A0008260808380818A7F808308958F929F926C
:1003B000AF92BF92CF92DF92EF92FF920F931F9373
:1003C0004C01F8942091840040918500A0900C028B
:1003D000B0900D02C0900E02D0900F02742F60E01A
:1003E00030E0622B732B80E090E00E94220A2DEB1C
:1003F00037E346E055E30E941E087B018C01C601ED
:10040000B5012DEB37E346E05DE30E941E089B013A
:10041000AC01C801B7010E94F107F4016083718348
:100420008283938380E090E0A0E0B0E080930C02B0
:1004300090930D02A0930E02B0930F0278941F9137
:100440000F91FF90EF90DF90CF90BF90AF909F9073
:100450008F9008951F920F920FB60F9211242F9331
:100460003F934F935F936F937F938F939F93AF933C
:10047000BF93EF93FF9360910C0270910D028091F6
:100480000E0290910F0220E030E040E85FE30E940E
:10049000F10760930C0270930D0280930E0290930B
:1004A0000F02FF91EF91BF91AF919F918F917F913B
:1004B0006F915F914F913F912F910F900FBE0F90D1
:1004C0001F9018952F923F924F925F926F927F925A
:1004D0008F929F92AF92BF92CF92DF92EF92FF9254
:1004E0000F931F93DF93CF93CDB7DEB7A8970FB6C7
:1004F000F894DEBF0FBECDBF78940E9400060E9424
:100500006A00259A82ED0E9470002D9A80ED97E096
:1005100020E931E0F9013197F1F70197D9F72D98EA
:100520000E94C9051092800080916F0081608093C5
:100530006F008091810082608093810080918100B2
:100540008A7F809381000F2EF0E0EF2EF0E0FF2EE7
:10055000F0E00F2FF0E01F2FF02D570168018824E5
:1005600087E0682E712C6C0E7D1EC3010E948F05E2
:100570006F817885882777FD8095982F0E94C40920
:100580009B01AC01C801B7010E94F1077B018C01FE
:1005900069857A85882777FD8095982F0E94C40900
:1005A0009B01AC01C601B5010E94F1075B016C0122
:1005B000839484E18816C9F6C801B70120E030E0D1
:1005C00040EA51E40E9418092EE23AEF4EE85CE35B
:1005D0000E941E0820E030E04AE754E40E94180917
:1005E00020E030E040E058E30E941E08698B7A8BDF
:1005F0008B8B9C8BC601B50120E030E040EA51E4D2
:100600000E9418092EE23AEF4EE85CE30E941E08B1
:1006100020E030E04AE754E40E94180920E030E08E
:1006200040E058E30E941E086D877E878F87988B75
:100630004E010894811C911CC4010E941F050F2EBD
:10064000F0E0EF2EF0E0FF2EF0E00F2FF0E01F2F94
:10065000F02DC801B70157016801A80197010E9458
:100660007D0C6D8F7E8F8F8F98A3C801B701A80175
:1006700097010E941E087B018C01C601B501A601ED
:1006800095010E941E089B01AC01C801B7010E94A0
:10069000F1070E94180E9B01AC0160E070E080E061
:1006A00090E80E947D0C698F7A8F8B8F9C8FAD8A2A
:1006B000BE8ACF8AD88E8FA298A6F89460918400C3
:1006C00020918500A0900C02B0900D02C0900E0207
:1006D000D0900F022EA31DA270E0ADA1BEA16A2B87
:1006E0007B2B80E090E00E94220A2DEB37E346E06E
:1006F00055E30E941E087B018C01C601B5012DEB5C
:1007000037E346E05DE30E941E089B01AC01C8018F
:10071000B7010E94F1071B012C0180E090E0A0E0EE
:10072000B0E080930C0290930D02A0930E02B09360
:100730000F0278948FA198A50E941F05CE010796FD
:100740000E948F056B817C81882777FD8095982F8B
:100750000E94C4092DEC3CEC4CE151E40E941E08BF
:100760009B01AC010E94F10720E030E040E058E33B
:100770000E941E085B016C016D817E81882777FDD8
:100780008095982F0E94C4092DEC3CEC4CE151E47B
:100790000E941E089B01AC010E94F10720E030E09E
:1007A00040E058E30E941E087B018C016D897E8920
:1007B0008F89988D2FE632E143E85AE30E94F107D2
:1007C0003B014C01C601B501A80197010E947D0CB7
:1007D00069A37AA38BA39CA3C601B501A6019501C9
:1007E0000E941E085B016C01C801B701A8019701B6
:1007F0000E941E089B01AC01C601B5010E94F107D1
:100800000E94180E7B018C0169817A81882777FD0F
:100810008095982F0E94C4092DEC3CEC4CE151E4EA
:100820000E941E089B01AC010E94F10720E030E00D
:1008300040E058E30E941E089058A80197010E94CA
:100840007D0C5B016C01C401B3012FE832EC45EF74
:100850005CE30E94F1079B01AC01C401B3010E945B
:1008600018097B018C016F817885882777FD809539
:10087000982F0E94C4092EE23AEF4EE85CE30E94F2
:100880001E0820E030E04AE754E40E94180920E006
:1008900030E040E058E30E941E0829893A894B89DC
:1008A0005C890E94C0079B01AC01C201B1010E949A
:1008B0001E089B01AC016D8D7E8D8F8D98A10E94CD
:1008C000F1079B01AC0169A17AA18BA19CA10E94B7
:1008D000C0079B01AC01C801B7010E941E089B0123
:1008E000AC016D8D7E8D8F8D98A10E94F1076D8F6B
:1008F0007E8F8F8F98A369857A85882777FD80956D
:10090000982F0E94C4092EE23AEF4EE85CE30E9461
:100910001E0820E030E04AE754E40E94180920E075
:1009200030E040E058E30E941E082D853E854F854B
:1009300058890E94C0079B01AC01C201B1010E940D
:100940001E089B01AC01698D7A8D8B8D9C8D0E9458
:10095000F1079B01AC01C601B5010E94C0079B01D4
:10096000AC01C801B7010E941E089B01AC01698D52
:100970007A8D8B8D9C8D0E94F107698F7A8F8B8F7A
:100980009C8F60E070E080E89FE3A80197010E94DF
:10099000C007A40193010E941E086D8B7E8B8F8B74
:1009A000988F8AE00E94110680E49CE90197F1F794
:1009B0006D8D7E8D8F8D98A10E943F06698D7A8DF9
:1009C0008B8D9C8D0E943F06C201B1010E943F06A3
:1009D00074CE0F931F938C0182ED6FE3A8010E94E8
:1009E000EF000F5F1F4F82ED60E4A8010E94EF004F
:1009F0001F910F9108950F931F938C0182ED6DE36A
:100A0000A8010E94EF000F5F1F4F82ED6EE3A80167
:100A10000E94EF001F910F9108950F931F938C0177
:100A200082ED6BE3A8010E94EF000F5F1F4F82ED84
:100A30006CE3A8010E94EF001F910F910895EF92BF
:100A4000FF920F931F93DF93CF9300D0CDB7DEB704
:100A50007C018E010F5F1F4FC8010E940D05998117
:100A600080E02A8130E0822B932BF70191838083F1
:100A7000C8010E94FB04998180E02A8130E0822B2A
:100A8000932BF70193838283C8010E94E904998123
:100A900080E02A8130E0822B932BF70195838483B9
:100AA0000F900F90CF91DF911F910F91FF90EF90DA
:100AB00008950F931F938C0182ED67E4A8010E94B3
:100AC000EF000F5F1F4F82ED68E4A8010E94EF0066
:100AD0001F910F9108950F931F938C0182ED65E490
:100AE000A8010E94EF000F5F1F4F82ED66E4A8018E
:100AF0000E94EF001F910F9108950F931F938C0197
:100B000082ED63E4A8010E94EF000F5F1F4F82EDAA
:100B100064E4A8010E94EF001F910F910895EF92E5
:100B2000FF920F931F93DF93CF9300D0CDB7DEB723
:100B30007C018E010F5F1F4FC8010E947D059981C6
:100B400080E02A8130E0822B932BF7019183808310
:100B5000C8010E946B05998180E02A8130E0822BD8
:100B6000932BF70193838283C8010E9459059981D1
:100B700080E02A8130E0822B932BF70195838483D8
:100B80000F900F90CF91DF911F910F91FF90EF90F9
:100B9000089582ED6BE640E00E941D0182ED6AE15E
:100BA00041E00E941D0182ED6BE140E10E941D01C8
:100BB00082ED6CE140E00E941D0182ED68E340E0BF
:100BC0000E941D0182ED68E640E00E941D0108952B
:100BD000DF93CF930F92CDB7DEB782ED0E94700006
:100BE000898382ED65E7AE014F5F5F4F0E94EF00A2
:100BF0008981883609F080E00F90CF91DF910895C8
:100C00001092C50087E68093C400E0ECF0E080819C
:100C10008D7F808386E08093C20088E98093C10045
:100C20000895982F8091C00085FFFCCF9093C60057
:100C300008958091C00087FFFCCF8091C600089581
:100C4000FC0107C08091C00085FFFCCF9093C600D7
:100C5000319690819923B1F708959C018091C0004D
:100C600085FFFCCF2093C6008091C00085FFFCCF9C
:100C7000832F992787FD9A958093C6000895DF9367
:100C8000CF9300D000D0CDB7DEB769837A838B8352
:100C90009C83DE0111969981FD0131968091C000FF
:100CA00085FFFCCF9093C60011969C91DF011196B1
:100CB0008091C00085FFFCCF9093C6009181809108
:100CC000C00085FFFCCF9093C60011969C91809147
:100CD000C00085FFFCCF9093C6000F900F900F903F
:100CE0000F90CF91DF910895A0E0B0E0EAE7F6E041
:100CF0000C94370CDC012B01FA019C91923008F422
:100D000039C1EB018881823008F433C1943069F431
:100D1000843009F02FC111969C9111978981981701
:100D200009F428C1A4E0B1E025C1843009F421C14F
:100D30008230A9F4923009F01DC19A01AD0188E01A
:100D4000EA010990AE01E90109929E018150C1F7C3
:100D5000E201898111969C918923818308C1923097
:100D600009F407C112962D903C901397EB018A81EC
:100D70009B811496AD90BD90CD90DC901797EC8040
:100D8000FD800E811F819101281B390BB90137FFAE
:100D900004C066277727621B730B603271050CF065
:100DA00061C0121613066CF537014801062E04C007
:100DB00096948794779467940A94D2F721E030E070
:100DC00040E050E004C0220F331F441F551F6A95B6
:100DD000D2F721503040404050402E213F21402347
:100DE0005123211531054105510521F021E030E065
:100DF00040E050E079018A01E628F72808291929FE
:100E00003CC0232BD1F1260E371E35014601062E9C
:100E100004C096948794779467940A94D2F721E05B
:100E200030E040E050E004C0220F331F441F551F44
:100E30006A95D2F721503040404050402A213B2152
:100E40004C215D21211531054105510521F021E09D
:100E500030E040E050E059016A01A628B728C828D0
:100E6000D9280BC0821593052CF01C01AA24BB24A1
:100E7000650103C0EE24FF24870111969C91D201E5
:100E800011968C91981709F445C0992339F0A8015F
:100E900097012A193B094C095D0906C0A601950175
:100EA0002E193F09400B510B57FD08C011823382A8
:100EB000228224833583468357831DC081E081834A
:100EC0003382228288279927DC01821B930BA40B93
:100ED000B50B84839583A683B7830DC0220F331F80
:100EE000441F551F24833583468357838281938112
:100EF0000197938382832481358146815781DA016A
:100F0000C9010197A109B1098F5F9F4FAF4FBF433F
:100F100028F30BC0918333822282EA0CFB1C0C1D48
:100F20001D1DE482F5820683178383E0808324817C
:100F300035814681578157FF1AC0C901AA2797FDFD
:100F4000A095BA2F81709070A070B070569547959B
:100F500037952795822B932BA42BB52B84839583D0
:100F6000A683B78382819381019693838283DF0175
:100F700001C0D201CD01CDB7DEB7E2E10C94530C34
:100F8000A0E2B0E0E6ECF7E00C94430C69837A83CE
:100F90008B839C832D833E834F835887E9E0EE2E1D
:100FA000F12CEC0EFD1ECE010196B7010E94BF0B85
:100FB0008E010F5E1F4FCE010596B8010E94BF0B38
:100FC0008A8991E089278A8BC701B801AE01475E03
:100FD0005F4F0E9474060E94EA0AA096E6E00C9415
:100FE0005F0CA0E2B0E0E7EFF7E00C94430C6983FC
:100FF0007A838B839C832D833E834F835887F9E0CC
:10100000EF2EF12CEC0EFD1ECE010196B7010E94D1
:10101000BF0B8E010F5E1F4FCE010596B8010E94D7
:10102000BF0BC701B801AE01475E5F4F0E94740657
:101030000E94EA0AA096E6E00C945F0CA0E2B0E001
:10104000E4E2F8E00C94370C69837A838B839C8309
:101050002D833E834F835887CE010196BE01675F83
:101060007F4F0E94BF0BCE010596BE016F5E7F4F82
:101070000E94BF0B9985923088F089898230C8F030
:10108000943019F4823051F404C0843029F4923041
:1010900081F484E091E0C6C0923049F420E09A8562
:1010A0008A89981321E02A87CE010996BBC0823035
:1010B00049F420E09A858A89981321E02A8BCE0191
:1010C0004196B0C02D843E844F8458886D887E88B8
:1010D0008F88988CEE24FF248701AA24BB24650105
:1010E00040E050E060E070E0E0E0F0E0C1018170DD
:1010F0009070892BE9F0E60CF71C081D191D9A0168
:10110000AB012A0D3B1D4C1D5D1D80E090E0A0E071
:10111000B0E0E614F7040805190520F481E090E03A
:10112000A0E0B0E0BA01A901480F591F6A1F7B1F58
:10113000AA0CBB1CCC1CDD1C97FE08C081E090E013
:10114000A0E0B0E0A82AB92ACA2ADB2A3196E03208
:10115000F10549F0660C771C881C991C569447943D
:1011600037942794C3CFFA85EA892B893C898B85EC
:101170009C85280F391F2E5F3F4F17C0CA01817011
:101180009070892B61F016950795F794E79480E0AD
:1011900090E0A0E0B0E8E82AF92A0A2B1B2B76950C
:1011A0006795579547952F5F3F4F77FDE7CF0CC069
:1011B000440F551F661F771F17FD4160EE0CFF1C83
:1011C000001F111F21503040403090E0590790E03F
:1011D000690790E4790760F32B8F3C8FDB01CA012C
:1011E0008F779070A070B07080349105A105B10523
:1011F00061F447FD0AC0E114F1040105110529F06D
:10120000405C5F4F6F4F7F4F40781A8EFE1711F092
:1012100081E08A8F4D8F5E8F6F8F78A383E0898FF7
:10122000CE0149960E94EA0AA096E2E10C94530C82
:10123000A8E1B0E0EEE1F9E00C943F0C69837A8319
:101240008B839C832D833E834F835887B9E0EB2E9D
:10125000F12CEC0EFD1ECE010196B7010E94BF0BD2
:101260008E010F5E1F4FCE010596B8010E94BF0B85
:101270002985223008F47EC03989323010F4B80153
:101280007CC08A859A8989278A87243011F0223088
:1012900031F4231709F06EC064E071E06EC03430A1
:1012A00039F41D861E861F86188A1C861B8604C07C
:1012B000323021F484E08987B7015FC02B853C85FB
:1012C0008B899C89281B390B3C872B87ED84FE84F6
:1012D0000F851889AD88BE88CF88D88CEA14FB04A6
:1012E0000C051D0540F4EE0CFF1C001F111F2150C2
:1012F00030403C872B8720E030E040E050E080E049
:1013000090E0A0E0B0E460E070E0EA14FB040C05BB
:101310001D0540F0282B392B4A2B5B2BEA18FB08C4
:101320000C091D09B695A79597958795EE0CFF1C9E
:10133000001F111F6F5F7F4F6F31710531F7DA01A9
:10134000C9018F779070A070B07080349105A105AD
:10135000B10561F427FD0AC0E114F104010511058E
:1013600029F0205C3F4F4F4F5F4F20782D873E87FD
:101370004F87588BBE01675F7F4FCB010E94EA0AFF
:101380006896EAE00C945B0CA8E0B0E0EAECF9E0C7
:101390000C94400C9B01AC0183E08983DA01C90104
:1013A0008827B7FD83959927AA27BB27B82E211533
:1013B00031054105510519F482E089833AC088233B
:1013C000A9F0203080E0380780E0480780E858071F
:1013D00029F460E070E080E09FEC30C0EE24FF2450
:1013E0008701E21AF30A040B150B02C079018A0186
:1013F0008EE1C82ED12CDC82CB82ED82FE820F835F
:101400001887C801B7010E949B0A01971816190690
:1014100084F4082E04C0EE0CFF1C001F111F0A9458
:10142000D2F7ED82FE820F831887C81AD90ADC82B0
:10143000CB82BA82CE0101960E94EA0A2896E9E0A0
:101440000C945C0CA8E0B0E0E8E2FAE00C943F0CED
:101450007B018C01611571058105910519F482E00C
:10146000898360C083E089838EE1C82ED12CDC8221
:10147000CB82ED82FE820F831887C801B7010E94DC
:101480009B0AFC013197F7FF3BC0222733272E1B15
:101490003F0B57016801022E04C0D694C794B7943D
:1014A000A7940A94D2F740E050E060E070E081E059
:1014B00090E0A0E0B0E004C0880F991FAA1FBB1FF6
:1014C0002A95D2F70197A109B1098E219F21A02366
:1014D000B1230097A105B10521F041E050E060E0A3
:1014E00070E04A295B296C297D294D835E836F83D7
:1014F00078878EE190E08E1B9F0B9C838B8312C0BC
:10150000309781F00E2E04C0EE0CFF1C001F111F3F
:101510000A94D2F7ED82FE820F831887CE1ADF0A73
:10152000DC82CB821A82CE0101960E94EA0A2896BA
:10153000EAE00C945B0CEF92FF920F931F937B01F8
:101540008C0180E0E81680E0F80681E0080780E082
:10155000180788F48FEFE816F1040105110531F042
:1015600028F088E090E0A0E0B0E017C080E090E0D4
:10157000A0E0B0E012C080E0E81680E0F80680E06D
:10158000080781E0180728F088E190E0A0E0B0E0CB
:1015900004C080E190E0A0E0B0E020E230E040E074
:1015A00050E0281B390B4A0B5B0B04C016950795BE
:1015B000F794E7948A95D2F7F701E45FFE4F8081B4
:1015C000281B310941095109C9011F910F91FF9051
:1015D000EF900895DF92EF92FF920F931F93FC011B
:1015E000E480F58006811781D1808081823048F4C3
:1015F00080E090E0A0E1B0E0E82AF92A0A2B1B2B5A
:10160000A5C0843009F49FC0823021F4EE24FF2469
:10161000870105C0E114F1040105110519F4E0E0AA
:10162000F0E096C0628173819FEF623879070CF019
:101630005BC022E83FEF261B370B2A3131052CF027
:1016400020E030E040E050E02AC0B801A701022EBF
:1016500004C076956795579547950A94D2F781E02F
:1016600090E0A0E0B0E004C0880F991FAA1FBB1F44
:101670002A95D2F70197A109B1098E219F21A023B4
:10168000B1230097A105B10521F081E090E0A0E031
:10169000B0E09A01AB01282B392B4A2B5B2BDA01E6
:1016A000C9018F779070A070B07080349105A1054A
:1016B000B10539F427FF09C0205C3F4F4F4F5F4F02
:1016C00004C0215C3F4F4F4F5F4FE0E0F0E020301F
:1016D000A0E03A07A0E04A07A0E45A0710F0E1E0D2
:1016E000F0E079018A0127C06038710564F5FB01DB
:1016F000E158FF4FD801C7018F779070A070B0708C
:1017000080349105A105B10539F4E7FE0DC080E4F0
:1017100090E0A0E0B0E004C08FE390E0A0E0B0E093
:10172000E80EF91E0A1F1B1F17FF05C01695079527
:10173000F794E794319687E016950795F794E79428
:101740008A95D1F705C0EE24FF248701EFEFF0E082
:101750006E2F679566276795902F9F77D794DD2426
:10176000D7948E2F8695492F462B582F5D29B70188
:10177000CA011F910F91FF90EF90DF900895FC0137
:10178000DB01408151812281622F6F7770E0221F3F
:101790002227221F9381892F880F822B282F30E048
:1017A000991F9927991F11969C931197211531051F
:1017B000A9F5411551056105710511F482E037C0A5
:1017C00082E89FEF13969C938E9312979A01AB0138
:1017D00067E0220F331F441F551F6A95D1F783E03E
:1017E0008C930DC0220F331F441F551F12968D91ED
:1017F0009C911397019713969C938E931297203088
:1018000080E0380780E0480780E4580758F31496D2
:101810002D933D934D935C93179708952F3F31057A
:1018200079F4411551056105710519F484E08C9333
:10183000089564FF03C081E08C9312C01C9210C015
:101840002F57304013963C932E93129783E08C933E
:1018500087E0440F551F661F771F8A95D1F7706484
:1018600014964D935D936D937C93179708952F92E3
:101870003F924F925F926F927F928F929F92AF9220
:10188000BF92CF92DF92EF92FF920F931F93CF936D
:10189000DF93CDB7DEB7CA1BDB0B0FB6F894DEBF04
:1018A0000FBECDBF09942A88398848885F846E842A
:1018B0007D848C849B84AA84B984C884DF80EE8074
:1018C000FD800C811B81AA81B981CE0FD11D0FB67D
:1018D000F894DEBF0FBECDBFED010895F5D058F0EE
:1018E00080E891E009F49EEFF6D028F040E851E05E
:1018F00059F45EEF09C0C0C028C1E92FE07803D1D8
:1019000068F3092E052AC1F3261737074807590738
:1019100038F00E2E07F8E02569F0E025E0640AC0F3
:10192000EF6307F8009407FADB01B9019D01DC01C0
:10193000CA01AD01EF9341D0D5D00AD05F915523B4
:1019400031F02BED3FE049E450FD49EC4ACB0895DE
:10195000DF93DD27B92FBF7740E85FE31616170640
:1019600048075B0710F4D92FF7D09F938F937F938D
:101970006F93A8D1E8E6F0E082D0B4D02F913F91E8
:101980004F915F91FAD0DD2349F09058A2EA2AEDF9
:101990003FE049EC5FE3D0785D27A4D1DF91A2C09E
:1019A0009AD040F091D030F021F45F3F19F05EC042
:1019B0005111CCC061C0A7D098F39923C9F3552326
:1019C000B1F3951B550BBB27AA2762177307840732
:1019D00038F09F5F5F4F220F331F441FAA1FA9F3E8
:1019E00033D00E2E3AF0E0E830D091505040E695DA
:1019F000001CCAF729D0FE2F27D0660F771F881F3B
:101A0000BB1F261737074807AB07B0E809F0BB0B29
:101A1000802DBF01FF2793585F4F2AF09E3F51054D
:101A200068F024C093C05F3FECF3983EDCF38695EA
:101A300077956795B795F7959F5FC9F7880F911DC3
:101A40009695879597F90895E1E0660F771F881FAF
:101A5000BB1F621773078407BA0720F0621B730B62
:101A6000840BBA0BEE1F88F7E095089597F99F67EE
:101A700080E870E060E008959FEF80EC0895DF93C8
:101A8000CF931F930F93FF92EF92DF927B018C0114
:101A9000689405C0DA2EEF0170D0FE01E894A5919C
:101AA0002591359145915591AEF3EF011BD1FE0182
:101AB0009701A801DA9479F7DF90EF90FF900F91EA
:101AC0001F91CF91DF91089500240A9416161706EE
:101AD00018060906089500240A941216130614061F
:101AE00005060895092E0394000C11F4882352F082
:101AF000BB0F40F4BF2B11F460FF04C06F5F7F4F3A
:101B00008F4F9F4F089557FD9058440F551F59F020
:101B10005F3F71F04795880F97FB991F61F09F3FDA
:101B200079F087950895121613061406551FF2CF03
:101B30004695F1DF08C0161617061806991FF1CF53
:101B400086957105610508940895E894BB2766277A
:101B50007727CB0197F908959B01AC0160E070E015
:101B600080E89FE365CBB0DF28F0B5DF18F0952360
:101B700009F07CCF81CF1124E9CFC5DFA0F3959F79
:101B8000D1F3950F50E0551F629FF001729FBB2764
:101B9000F00DB11D639FAA27F00DB11DAA1F649F10
:101BA0006627B00DA11D661F829F2227B00DA11DC3
:101BB000621F739FB00DA11D621F839FA00D611D49
:101BC000221F749F3327A00D611D231F849F600D6A
:101BD000211D822F762F6A2F11249F5750408AF0A3
:101BE000E1F088234AF0EE0FFF1FBB1F661F771F2F
:101BF000881F91505040A9F79E3F510570F036CF95
:101C0000A5CF5F3FECF3983EDCF38695779567951B
:101C1000B795F795E7959F5FC1F7FE2B880F911D4C
:101C20009695879597F9089511F40EF425CFADC0D8
:101C300072DFD0F39923D9F3CEF39F57550B87FF6B
:101C4000B4D056959795B0E020F4660F771F881FA3
:101C5000BB1F1F930F9300249001A0018001F0018E
:101C6000A0E80E0F1F1F0A1E511D601B710B80097B
:101C7000B50B48F4600F711F801DB51F0E1B1F0BA5
:101C80000A0A510907C02E0F3F1F4A1F0E0F1F1FC0
:101C90000A1E511D660F771F881FBB1FA695F7955B
:101CA000E795F8F60617170708065B07211D311D93
:101CB000411D0F911F91B901842F9158880F96955E
:101CC000879508959B01AC01B9C9FEDE30F003DFB2
:101CD00020F031F49F3F11F41EF4CECE0EF4E095C7
:101CE000E7FBC4CEE92F0FDF80F3BA176207730753
:101CF0008407950718F071F49EF527CF0EF4E09550
:101D00000B2EBA2FA02D0B01B90190010C01CA01B5
:101D1000A0011124FF27591B99F0593F50F4503E60
:101D200068F11A16F040A22F232F342F4427585F52
:101D3000F3CF469537952795A795F0405395C9F76A
:101D40007EF41F16BA0B620B730B840BBAF0915022
:101D5000A1F0FF0FBB1F661F771F881FC2F70EC0C1
:101D6000BA0F621F731F841F48F487957795679594
:101D7000B795F7959E3F08F0B3CF9395880F08F07D
:101D80009927EE0F9795879508959F3F49F09150B9
:101D900028F4869577956795B7959F5F80389F4F14
:101DA000880F9695879597F9089591505040660F42
:0C1DB000771F881FD2F70895F894FFCF2A
:101DBC000000000000000000000000000001020212
:101DCC0003030303040404040404040405050505C7
:101DDC0005050505050505050505050506060606A3
:101DEC000606060606060606060606060606060687
:101DFC000606060606060606060606060707070773
:101E0C000707070707070707070707070707070756
:101E1C000707070707070707070707070707070746
:101E2C000707070707070707070707070707070736
:101E3C000707070707070707070707070808080822
:101E4C000808080808080808080808080808080806
:101E5C0008080808080808080808080808080808F6
:101E6C0008080808080808080808080808080808E6
:101E7C0008080808080808080808080808080808D6
:101E8C0008080808080808080808080808080808C6
:101E9C0008080808080808080808080808080808B6
:101EAC0008080808080808080808080808080808A6
:0C1EBC00080808080808080808080808BA
:00000001FF
